{
  "contractName": "MedicalContract",
  "abi": [
    {
      "inputs": [
        {
          "internalType": "uint256",
          "name": "",
          "type": "uint256"
        }
      ],
      "name": "medecinListe",
      "outputs": [
        {
          "internalType": "address",
          "name": "",
          "type": "address"
        }
      ],
      "stateMutability": "view",
      "type": "function",
      "constant": true
    },
    {
      "inputs": [
        {
          "internalType": "uint256",
          "name": "",
          "type": "uint256"
        }
      ],
      "name": "patientListe",
      "outputs": [
        {
          "internalType": "address",
          "name": "",
          "type": "address"
        }
      ],
      "stateMutability": "view",
      "type": "function",
      "constant": true
    },
    {
      "inputs": [
        {
          "internalType": "string",
          "name": "_nom",
          "type": "string"
        },
        {
          "internalType": "uint256",
          "name": "_age",
          "type": "uint256"
        },
        {
          "internalType": "uint256",
          "name": "_type",
          "type": "uint256"
        },
        {
          "internalType": "string",
          "name": "_hash",
          "type": "string"
        }
      ],
      "name": "add_user",
      "outputs": [
        {
          "internalType": "string",
          "name": "",
          "type": "string"
        }
      ],
      "stateMutability": "nonpayable",
      "type": "function"
    },
    {
      "inputs": [
        {
          "internalType": "address",
          "name": "addr",
          "type": "address"
        }
      ],
      "name": "get_patient",
      "outputs": [
        {
          "internalType": "string",
          "name": "",
          "type": "string"
        },
        {
          "internalType": "uint256",
          "name": "",
          "type": "uint256"
        },
        {
          "internalType": "uint256[]",
          "name": "",
          "type": "uint256[]"
        },
        {
          "internalType": "address",
          "name": "",
          "type": "address"
        },
        {
          "internalType": "string",
          "name": "",
          "type": "string"
        },
        {
          "internalType": "string[]",
          "name": "",
          "type": "string[]"
        }
      ],
      "stateMutability": "view",
      "type": "function",
      "constant": true
    },
    {
      "inputs": [
        {
          "internalType": "address",
          "name": "addr",
          "type": "address"
        }
      ],
      "name": "get_medecin",
      "outputs": [
        {
          "internalType": "string",
          "name": "",
          "type": "string"
        },
        {
          "internalType": "uint256",
          "name": "",
          "type": "uint256"
        }
      ],
      "stateMutability": "view",
      "type": "function",
      "constant": true
    },
    {
      "inputs": [],
      "name": "get_patient_liste",
      "outputs": [
        {
          "internalType": "address[]",
          "name": "",
          "type": "address[]"
        }
      ],
      "stateMutability": "view",
      "type": "function",
      "constant": true
    },
    {
      "inputs": [],
      "name": "get_medecin_liste",
      "outputs": [
        {
          "internalType": "address[]",
          "name": "",
          "type": "address[]"
        }
      ],
      "stateMutability": "view",
      "type": "function",
      "constant": true
    },
    {
      "inputs": [
        {
          "internalType": "address",
          "name": "patientaddr",
          "type": "address"
        },
        {
          "internalType": "address",
          "name": "medecinaddr",
          "type": "address"
        }
      ],
      "name": "get_patient_medecin_NOM",
      "outputs": [
        {
          "internalType": "string",
          "name": "",
          "type": "string"
        },
        {
          "internalType": "string",
          "name": "",
          "type": "string"
        }
      ],
      "stateMutability": "view",
      "type": "function",
      "constant": true
    },
    {
      "inputs": [
        {
          "internalType": "address",
          "name": "addr",
          "type": "address"
        }
      ],
      "name": "donner_Acces",
      "outputs": [],
      "stateMutability": "payable",
      "type": "function",
      "payable": true
    },
    {
      "inputs": [
        {
          "internalType": "address",
          "name": "paddr",
          "type": "address"
        },
        {
          "internalType": "uint256",
          "name": "_diagnostic",
          "type": "uint256"
        },
        {
          "internalType": "string",
          "name": "_hash",
          "type": "string"
        },
        {
          "internalType": "string",
          "name": "_hashRapport",
          "type": "string"
        }
      ],
      "name": "insurance_claim",
      "outputs": [],
      "stateMutability": "payable",
      "type": "function",
      "payable": true
    },
    {
      "inputs": [
        {
          "internalType": "address",
          "name": "paddr",
          "type": "address"
        },
        {
          "internalType": "address",
          "name": "maddr",
          "type": "address"
        }
      ],
      "name": "delete_patient",
      "outputs": [],
      "stateMutability": "nonpayable",
      "type": "function"
    },
    {
      "inputs": [
        {
          "internalType": "address",
          "name": "addr",
          "type": "address"
        }
      ],
      "name": "get_AccesMedecinListe",
      "outputs": [
        {
          "internalType": "address[]",
          "name": "",
          "type": "address[]"
        }
      ],
      "stateMutability": "view",
      "type": "function",
      "constant": true
    },
    {
      "inputs": [
        {
          "internalType": "address",
          "name": "addr",
          "type": "address"
        }
      ],
      "name": "get_AccesPatientListe",
      "outputs": [
        {
          "internalType": "address[]",
          "name": "",
          "type": "address[]"
        }
      ],
      "stateMutability": "view",
      "type": "function",
      "constant": true
    },
    {
      "inputs": [
        {
          "internalType": "address",
          "name": "maddr",
          "type": "address"
        }
      ],
      "name": "retirer_Acces",
      "outputs": [],
      "stateMutability": "payable",
      "type": "function",
      "payable": true
    },
    {
      "inputs": [
        {
          "internalType": "address",
          "name": "paddr",
          "type": "address"
        }
      ],
      "name": "get_hash",
      "outputs": [
        {
          "internalType": "string",
          "name": "",
          "type": "string"
        }
      ],
      "stateMutability": "view",
      "type": "function",
      "constant": true
    },
    {
      "inputs": [
        {
          "internalType": "address",
          "name": "paddr",
          "type": "address"
        }
      ],
      "name": "get_Rapporthash",
      "outputs": [
        {
          "internalType": "string[]",
          "name": "",
          "type": "string[]"
        }
      ],
      "stateMutability": "view",
      "type": "function",
      "constant": true
    }
  ],
  "bytecode": "0x608060405234801561001057600080fd5b506127e0806100206000396000f3fe6080604052600436106100f35760003560e01c80637e1519ce1161008a578063d3f18c3911610059578063d3f18c3914610372578063f16d3bd91461038e578063f3ad10cf146103b9578063fc85f80e146103f7576100f3565b80637e1519ce1461027d578063815dc580146102ba57806395d3f31e146102f75780639a6427a214610335576100f3565b80634042d2d4116100c65780634042d2d4146101c65780634800a136146102085780634babc3251461024557806356d4f12314610261576100f3565b806303173ff9146100f85780631d215b9f1461012157806337b00df71461014c57806337b6e75714610189575b600080fd5b34801561010457600080fd5b5061011f600480360381019061011a9190611e04565b610434565b005b34801561012d57600080fd5b506101366104d0565b6040516101439190611f02565b60405180910390f35b34801561015857600080fd5b50610173600480360381019061016e9190611f24565b61055e565b6040516101809190611f02565b60405180910390f35b34801561019557600080fd5b506101b060048036038101906101ab9190611f87565b610634565b6040516101bd9190611fc3565b60405180910390f35b3480156101d257600080fd5b506101ed60048036038101906101e89190611f24565b610673565b6040516101ff96959493929190612250565b60405180910390f35b34801561021457600080fd5b5061022f600480360381019061022a9190611f87565b610a7b565b60405161023c9190611fc3565b60405180910390f35b61025f600480360381019061025a9190612402565b610aba565b005b61027b60048036038101906102769190611f24565b610d3f565b005b34801561028957600080fd5b506102a4600480360381019061029f9190611f24565b610db4565b6040516102b191906124a1565b60405180910390f35b3480156102c657600080fd5b506102e160048036038101906102dc9190611f24565b610e88565b6040516102ee9190611f02565b60405180910390f35b34801561030357600080fd5b5061031e60048036038101906103199190611e04565b610f58565b60405161032c9291906124c3565b60405180910390f35b34801561034157600080fd5b5061035c60048036038101906103579190611f24565b611102565b60405161036991906124fa565b60405180910390f35b61038c60048036038101906103879190611f24565b61121d565b005b34801561039a57600080fd5b506103a3611393565b6040516103b09190611f02565b60405180910390f35b3480156103c557600080fd5b506103e060048036038101906103db9190611f24565b611421565b6040516103ee92919061251c565b60405180910390f35b34801561040357600080fd5b5061041e6004803603810190610419919061254c565b61153f565b60405161042b91906124a1565b60405180910390f35b61047f600460008373ffffffffffffffffffffffffffffffffffffffff1673ffffffffffffffffffffffffffffffffffffffff168152602001908152602001600020600201836117f9565b506104cb600360008473ffffffffffffffffffffffffffffffffffffffff1673ffffffffffffffffffffffffffffffffffffffff168152602001908152602001600020600201826117f9565b505050565b6060600180548060200260200160405190810160405280929190818152602001828054801561055457602002820191906000526020600020905b8160009054906101000a900473ffffffffffffffffffffffffffffffffffffffff1673ffffffffffffffffffffffffffffffffffffffff168152602001906001019080831161050a575b5050505050905090565b60606000600360008473ffffffffffffffffffffffffffffffffffffffff1673ffffffffffffffffffffffffffffffffffffffff16815260200190815260200160002060020190508080548060200260200160405190810160405280929190818152602001828054801561062757602002820191906000526020600020905b8160009054906101000a900473ffffffffffffffffffffffffffffffffffffffff1673ffffffffffffffffffffffffffffffffffffffff16815260200190600101908083116105dd575b5050505050915050919050565b6002818154811061064457600080fd5b906000526020600020016000915054906101000a900473ffffffffffffffffffffffffffffffffffffffff1681565b6060600060606000606080600360008873ffffffffffffffffffffffffffffffffffffffff1673ffffffffffffffffffffffffffffffffffffffff168152602001908152602001600020600001600360008973ffffffffffffffffffffffffffffffffffffffff1673ffffffffffffffffffffffffffffffffffffffff16815260200190815260200160002060010154600360008a73ffffffffffffffffffffffffffffffffffffffff1673ffffffffffffffffffffffffffffffffffffffff168152602001908152602001600020600301600560008b73ffffffffffffffffffffffffffffffffffffffff1673ffffffffffffffffffffffffffffffffffffffff16815260200190815260200160002060009054906101000a900473ffffffffffffffffffffffffffffffffffffffff16600360008c73ffffffffffffffffffffffffffffffffffffffff1673ffffffffffffffffffffffffffffffffffffffff168152602001908152602001600020600401600360008d73ffffffffffffffffffffffffffffffffffffffff1673ffffffffffffffffffffffffffffffffffffffff1681526020019081526020016000206005018580546108359061261a565b80601f01602080910402602001604051908101604052809291908181526020018280546108619061261a565b80156108ae5780601f10610883576101008083540402835291602001916108ae565b820191906000526020600020905b81548152906001019060200180831161089157829003601f168201915b505050505095508380548060200260200160405190810160405280929190818152602001828054801561090057602002820191906000526020600020905b8154815260200190600101908083116108ec575b505050505093508180546109139061261a565b80601f016020809104026020016040519081016040528092919081815260200182805461093f9061261a565b801561098c5780601f106109615761010080835404028352916020019161098c565b820191906000526020600020905b81548152906001019060200180831161096f57829003601f168201915b5050505050915080805480602002602001604051908101604052809291908181526020016000905b82821015610a605783829060005260206000200180546109d39061261a565b80601f01602080910402602001604051908101604052809291908181526020018280546109ff9061261a565b8015610a4c5780601f10610a2157610100808354040283529160200191610a4c565b820191906000526020600020905b815481529060010190602001808311610a2f57829003601f168201915b5050505050815260200190600101906109b4565b50505050905095509550955095509550955091939550919395565b60018181548110610a8b57600080fd5b906000526020600020016000915054906101000a900473ffffffffffffffffffffffffffffffffffffffff1681565b6000805b600460003373ffffffffffffffffffffffffffffffffffffffff1673ffffffffffffffffffffffffffffffffffffffff16815260200190815260200160002060020180549050811015610c3c578573ffffffffffffffffffffffffffffffffffffffff16600460003373ffffffffffffffffffffffffffffffffffffffff1673ffffffffffffffffffffffffffffffffffffffff1681526020019081526020016000206002018281548110610b7657610b7561264b565b5b9060005260206000200160009054906101000a900473ffffffffffffffffffffffffffffffffffffffff1673ffffffffffffffffffffffffffffffffffffffff1603610c29573373ffffffffffffffffffffffffffffffffffffffff166108fc671bc16d674ec800009081150290604051600060405180830381858888f19350505050158015610c0a573d6000803e3d6000fd5b506002600080828254610c1d91906126a9565b92505081905550600191505b8080610c34906126dd565b915050610abe565b506001151581151503610c6357610c54858484611a3f565b610c5e8533610434565b610c68565b600080fd5b6000805b600360008873ffffffffffffffffffffffffffffffffffffffff1673ffffffffffffffffffffffffffffffffffffffff16815260200190815260200160002060030180549050811015610d365785600360008973ffffffffffffffffffffffffffffffffffffffff1673ffffffffffffffffffffffffffffffffffffffff1681526020019081526020016000206003018281548110610d0e57610d0d61264b565b5b906000526020600020015403610d2357600191505b8080610d2e906126dd565b915050610c6c565b50505050505050565b610d493382610434565b3373ffffffffffffffffffffffffffffffffffffffff166108fc671bc16d674ec800009081150290604051600060405180830381858888f19350505050158015610d97573d6000803e3d6000fd5b506002600080828254610daa91906126a9565b9250508190555050565b6060600360008373ffffffffffffffffffffffffffffffffffffffff1673ffffffffffffffffffffffffffffffffffffffff1681526020019081526020016000206004018054610e039061261a565b80601f0160208091040260200160405190810160405280929190818152602001828054610e2f9061261a565b8015610e7c5780601f10610e5157610100808354040283529160200191610e7c565b820191906000526020600020905b815481529060010190602001808311610e5f57829003601f168201915b50505050509050919050565b6060600460008373ffffffffffffffffffffffffffffffffffffffff1673ffffffffffffffffffffffffffffffffffffffff168152602001908152602001600020600201805480602002602001604051908101604052809291908181526020018280548015610f4c57602002820191906000526020600020905b8160009054906101000a900473ffffffffffffffffffffffffffffffffffffffff1673ffffffffffffffffffffffffffffffffffffffff1681526020019060010190808311610f02575b50505050509050919050565b606080600360008573ffffffffffffffffffffffffffffffffffffffff1673ffffffffffffffffffffffffffffffffffffffff168152602001908152602001600020600001600460008573ffffffffffffffffffffffffffffffffffffffff1673ffffffffffffffffffffffffffffffffffffffff168152602001908152602001600020600001818054610feb9061261a565b80601f01602080910402602001604051908101604052809291908181526020018280546110179061261a565b80156110645780601f1061103957610100808354040283529160200191611064565b820191906000526020600020905b81548152906001019060200180831161104757829003601f168201915b505050505091508080546110779061261a565b80601f01602080910402602001604051908101604052809291908181526020018280546110a39061261a565b80156110f05780601f106110c5576101008083540402835291602001916110f0565b820191906000526020600020905b8154815290600101906020018083116110d357829003601f168201915b50505050509050915091509250929050565b6060600360008373ffffffffffffffffffffffffffffffffffffffff1673ffffffffffffffffffffffffffffffffffffffff168152602001908152602001600020600501805480602002602001604051908101604052809291908181526020016000905b828210156112125783829060005260206000200180546111859061261a565b80601f01602080910402602001604051908101604052809291908181526020018280546111b19061261a565b80156111fe5780601f106111d3576101008083540402835291602001916111fe565b820191906000526020600020905b8154815290600101906020018083116111e157829003601f168201915b505050505081526020019060010190611166565b505050509050919050565b671bc16d674ec80000341461123157600080fd5b60026000808282546112439190612725565b92505081905550600460008273ffffffffffffffffffffffffffffffffffffffff1673ffffffffffffffffffffffffffffffffffffffff168152602001908152602001600020600201339080600181540180825580915050600190039060005260206000200160009091909190916101000a81548173ffffffffffffffffffffffffffffffffffffffff021916908373ffffffffffffffffffffffffffffffffffffffff160217905550600360003373ffffffffffffffffffffffffffffffffffffffff1673ffffffffffffffffffffffffffffffffffffffff168152602001908152602001600020600201819080600181540180825580915050600190039060005260206000200160009091909190916101000a81548173ffffffffffffffffffffffffffffffffffffffff021916908373ffffffffffffffffffffffffffffffffffffffff16021790555050565b6060600280548060200260200160405190810160405280929190818152602001828054801561141757602002820191906000526020600020905b8160009054906101000a900473ffffffffffffffffffffffffffffffffffffffff1673ffffffffffffffffffffffffffffffffffffffff16815260200190600101908083116113cd575b5050505050905090565b60606000600460008473ffffffffffffffffffffffffffffffffffffffff1673ffffffffffffffffffffffffffffffffffffffff168152602001908152602001600020600001600460008573ffffffffffffffffffffffffffffffffffffffff1673ffffffffffffffffffffffffffffffffffffffff168152602001908152602001600020600101548180546114b69061261a565b80601f01602080910402602001604051908101604052809291908181526020018280546114e29061261a565b801561152f5780601f106115045761010080835404028352916020019161152f565b820191906000526020600020905b81548152906001019060200180831161151257829003601f168201915b5050505050915091509150915091565b60606000339050600084036116da57611556611b17565b8681600001819052508581602001818152505083816080018190525080600360003373ffffffffffffffffffffffffffffffffffffffff1673ffffffffffffffffffffffffffffffffffffffff16815260200190815260200160002060008201518160000190805190602001906115ce929190611b54565b506020820151816001015560408201518160020190805190602001906115f5929190611bda565b506060820151816003019080519060200190611612929190611c64565b50608082015181600401908051906020019061162f929190611b54565b5060a082015181600501908051906020019061164c929190611cb1565b5060c0820151816006019080519060200190611669929190611b54565b509050506001829080600181540180825580915050600190039060005260206000200160009091909190916101000a81548173ffffffffffffffffffffffffffffffffffffffff021916908373ffffffffffffffffffffffffffffffffffffffff16021790555086925050506117f1565b600184036117ec5785600460008373ffffffffffffffffffffffffffffffffffffffff1673ffffffffffffffffffffffffffffffffffffffff1681526020019081526020016000206000019080519060200190611738929190611b54565b5084600460008373ffffffffffffffffffffffffffffffffffffffff1673ffffffffffffffffffffffffffffffffffffffff168152602001908152602001600020600101819055506002819080600181540180825580915050600190039060005260206000200160009091909190916101000a81548173ffffffffffffffffffffffffffffffffffffffff021916908373ffffffffffffffffffffffffffffffffffffffff160217905550859150506117f1565b600080fd5b949350505050565b600080600090506000805b858054905081101561189b578473ffffffffffffffffffffffffffffffffffffffff1686828154811061183a5761183961264b565b5b9060005260206000200160009054906101000a900473ffffffffffffffffffffffffffffffffffffffff1673ffffffffffffffffffffffffffffffffffffffff160361188857600192508091505b8080611893906126dd565b915050611804565b50816118a657600080fd5b60018580549050036118f7578481815481106118c5576118c461264b565b5b9060005260206000200160006101000a81549073ffffffffffffffffffffffffffffffffffffffff02191690556119f1565b846001868054905061190991906126a9565b8154811061191a5761191961264b565b5b9060005260206000200160009054906101000a900473ffffffffffffffffffffffffffffffffffffffff168582815481106119585761195761264b565b5b9060005260206000200160006101000a81548173ffffffffffffffffffffffffffffffffffffffff021916908373ffffffffffffffffffffffffffffffffffffffff16021790555084600186805490506119b291906126a9565b815481106119c3576119c261264b565b5b9060005260206000200160006101000a81549073ffffffffffffffffffffffffffffffffffffffff02191690555b84805480611a0257611a0161277b565b5b6001900381819060005260206000200160006101000a81549073ffffffffffffffffffffffffffffffffffffffff02191690559055505092915050565b81600360008573ffffffffffffffffffffffffffffffffffffffff1673ffffffffffffffffffffffffffffffffffffffff1681526020019081526020016000206004019080519060200190611a95929190611b54565b50600360008473ffffffffffffffffffffffffffffffffffffffff1673ffffffffffffffffffffffffffffffffffffffff16815260200190815260200160002060050181908060018154018082558091505060019003906000526020600020016000909190919091509080519060200190611b11929190611b54565b50505050565b6040518060e00160405280606081526020016000815260200160608152602001606081526020016060815260200160608152602001606081525090565b828054611b609061261a565b90600052602060002090601f016020900481019282611b825760008555611bc9565b82601f10611b9b57805160ff1916838001178555611bc9565b82800160010185558215611bc9579182015b82811115611bc8578251825591602001919060010190611bad565b5b509050611bd69190611d11565b5090565b828054828255906000526020600020908101928215611c53579160200282015b82811115611c525782518260006101000a81548173ffffffffffffffffffffffffffffffffffffffff021916908373ffffffffffffffffffffffffffffffffffffffff16021790555091602001919060010190611bfa565b5b509050611c609190611d11565b5090565b828054828255906000526020600020908101928215611ca0579160200282015b82811115611c9f578251825591602001919060010190611c84565b5b509050611cad9190611d11565b5090565b828054828255906000526020600020908101928215611d00579160200282015b82811115611cff578251829080519060200190611cef929190611b54565b5091602001919060010190611cd1565b5b509050611d0d9190611d2e565b5090565b5b80821115611d2a576000816000905550600101611d12565b5090565b5b80821115611d4e5760008181611d459190611d52565b50600101611d2f565b5090565b508054611d5e9061261a565b6000825580601f10611d705750611d8f565b601f016020900490600052602060002090810190611d8e9190611d11565b5b50565b6000604051905090565b600080fd5b600080fd5b600073ffffffffffffffffffffffffffffffffffffffff82169050919050565b6000611dd182611da6565b9050919050565b611de181611dc6565b8114611dec57600080fd5b50565b600081359050611dfe81611dd8565b92915050565b60008060408385031215611e1b57611e1a611d9c565b5b6000611e2985828601611def565b9250506020611e3a85828601611def565b9150509250929050565b600081519050919050565b600082825260208201905092915050565b6000819050602082019050919050565b611e7981611dc6565b82525050565b6000611e8b8383611e70565b60208301905092915050565b6000602082019050919050565b6000611eaf82611e44565b611eb98185611e4f565b9350611ec483611e60565b8060005b83811015611ef5578151611edc8882611e7f565b9750611ee783611e97565b925050600181019050611ec8565b5085935050505092915050565b60006020820190508181036000830152611f1c8184611ea4565b905092915050565b600060208284031215611f3a57611f39611d9c565b5b6000611f4884828501611def565b91505092915050565b6000819050919050565b611f6481611f51565b8114611f6f57600080fd5b50565b600081359050611f8181611f5b565b92915050565b600060208284031215611f9d57611f9c611d9c565b5b6000611fab84828501611f72565b91505092915050565b611fbd81611dc6565b82525050565b6000602082019050611fd86000830184611fb4565b92915050565b600081519050919050565b600082825260208201905092915050565b60005b83811015612018578082015181840152602081019050611ffd565b83811115612027576000848401525b50505050565b6000601f19601f8301169050919050565b600061204982611fde565b6120538185611fe9565b9350612063818560208601611ffa565b61206c8161202d565b840191505092915050565b61208081611f51565b82525050565b600081519050919050565b600082825260208201905092915050565b6000819050602082019050919050565b6120bb81611f51565b82525050565b60006120cd83836120b2565b60208301905092915050565b6000602082019050919050565b60006120f182612086565b6120fb8185612091565b9350612106836120a2565b8060005b8381101561213757815161211e88826120c1565b9750612129836120d9565b92505060018101905061210a565b5085935050505092915050565b600081519050919050565b600082825260208201905092915050565b6000819050602082019050919050565b600082825260208201905092915050565b600061218c82611fde565b6121968185612170565b93506121a6818560208601611ffa565b6121af8161202d565b840191505092915050565b60006121c68383612181565b905092915050565b6000602082019050919050565b60006121e682612144565b6121f0818561214f565b93508360208202850161220285612160565b8060005b8581101561223e578484038952815161221f85826121ba565b945061222a836121ce565b925060208a01995050600181019050612206565b50829750879550505050505092915050565b600060c082019050818103600083015261226a818961203e565b90506122796020830188612077565b818103604083015261228b81876120e6565b905061229a6060830186611fb4565b81810360808301526122ac818561203e565b905081810360a08301526122c081846121db565b9050979650505050505050565b600080fd5b600080fd5b7f4e487b7100000000000000000000000000000000000000000000000000000000600052604160045260246000fd5b61230f8261202d565b810181811067ffffffffffffffff8211171561232e5761232d6122d7565b5b80604052505050565b6000612341611d92565b905061234d8282612306565b919050565b600067ffffffffffffffff82111561236d5761236c6122d7565b5b6123768261202d565b9050602081019050919050565b82818337600083830152505050565b60006123a56123a084612352565b612337565b9050828152602081018484840111156123c1576123c06122d2565b5b6123cc848285612383565b509392505050565b600082601f8301126123e9576123e86122cd565b5b81356123f9848260208601612392565b91505092915050565b6000806000806080858703121561241c5761241b611d9c565b5b600061242a87828801611def565b945050602061243b87828801611f72565b935050604085013567ffffffffffffffff81111561245c5761245b611da1565b5b612468878288016123d4565b925050606085013567ffffffffffffffff81111561248957612488611da1565b5b612495878288016123d4565b91505092959194509250565b600060208201905081810360008301526124bb818461203e565b905092915050565b600060408201905081810360008301526124dd818561203e565b905081810360208301526124f1818461203e565b90509392505050565b6000602082019050818103600083015261251481846121db565b905092915050565b60006040820190508181036000830152612536818561203e565b90506125456020830184612077565b9392505050565b6000806000806080858703121561256657612565611d9c565b5b600085013567ffffffffffffffff81111561258457612583611da1565b5b612590878288016123d4565b94505060206125a187828801611f72565b93505060406125b287828801611f72565b925050606085013567ffffffffffffffff8111156125d3576125d2611da1565b5b6125df878288016123d4565b91505092959194509250565b7f4e487b7100000000000000000000000000000000000000000000000000000000600052602260045260246000fd5b6000600282049050600182168061263257607f821691505b602082108103612645576126446125eb565b5b50919050565b7f4e487b7100000000000000000000000000000000000000000000000000000000600052603260045260246000fd5b7f4e487b7100000000000000000000000000000000000000000000000000000000600052601160045260246000fd5b60006126b482611f51565b91506126bf83611f51565b9250828210156126d2576126d161267a565b5b828203905092915050565b60006126e882611f51565b91507fffffffffffffffffffffffffffffffffffffffffffffffffffffffffffffffff820361271a5761271961267a565b5b600182019050919050565b600061273082611f51565b915061273b83611f51565b9250827fffffffffffffffffffffffffffffffffffffffffffffffffffffffffffffffff038211156127705761276f61267a565b5b828201905092915050565b7f4e487b7100000000000000000000000000000000000000000000000000000000600052603160045260246000fdfea2646970667358221220ee525cd75377a680ec60ead17310dd789e4a7eb85cdf624664734f62bac380f164736f6c634300080d0033",
  "immutableReferences": {},
  "source": "// SPDX-License-Identifier: MIT\r\npragma solidity >=0.4.22 <0.9.0;\r\npragma abicoder v2;\r\n\r\ncontract MedicalContract \r\n{\r\n\r\nstruct patient \r\n{\r\n    string nom;\r\n    uint age;\r\n    address[] AccesMedecinListe;\r\n    uint[] diagnostic;\r\n    string dossier;\r\n    string[] rapport;\r\n    string chainediag;\r\n}\r\n\r\nstruct medecin \r\n{\r\n    string nom;\r\n    uint age;\r\n    address[] AccesPatientListe;\r\n}\r\n\r\nuint ensembleCredit;\r\n\r\n    address[] public patientListe;\r\n    address[] public medecinListe;\r\n\r\n    //Mapping is a reference type as arrays and structs.\r\n    // Following is the syntax to declare a mapping type.\r\n\r\n    mapping(address => patient) patientInfo;\r\n    mapping(address => medecin) medecinInfo;\r\n    mapping (address => address) listeVide;\r\n\r\n\r\n    function add_user(string memory _nom, uint _age,uint _type, string memory _hash) public returns(string memory){ \r\n        address addr = msg.sender;\r\n        if(_type == 0)\r\n        {\r\n            patient memory p;\r\n            p.nom = _nom;\r\n            p.age = _age;\r\n            p.dossier = _hash;\r\n            patientInfo[msg.sender] = p;\r\n            patientListe.push(addr);\r\n            return _nom;\r\n        }\r\n        else if (_type == 1)\r\n        {\r\n         medecinInfo[addr].nom = _nom;\r\n         medecinInfo[addr].age = _age ;\r\n         medecinListe.push(addr);\r\n          return _nom;\r\n        }\r\n        else{\r\n            revert();\r\n        }\r\n    }\r\n\r\n    function get_patient(address addr) view public returns(string memory , uint, uint[] memory , address, string memory,string[] memory )\r\n    {\r\n        return (patientInfo[addr].nom, patientInfo[addr].age, patientInfo[addr].diagnostic, listeVide[addr], patientInfo[addr].dossier,patientInfo[addr].rapport);\r\n    }\r\n\r\n    function get_medecin(address addr) view public returns (string memory , uint){\r\n        return (medecinInfo[addr].nom, medecinInfo[addr].age);\r\n    }\r\n\r\n     function get_patient_liste() public view returns(address[] memory ){\r\n        return patientListe;\r\n    }\r\n\r\n    function get_medecin_liste() public view returns(address[] memory ){\r\n        return medecinListe;\r\n    }\r\n     function get_patient_medecin_NOM(address patientaddr, address medecinaddr) view public returns (string memory , string memory ){\r\n        return (patientInfo[patientaddr].nom,medecinInfo[medecinaddr].nom);\r\n    }\r\n\r\n    \r\n    function donner_Acces(address addr) payable public {\r\n        require(msg.value == 2 ether);\r\n\r\n        ensembleCredit += 2;\r\n        \r\n        medecinInfo[addr].AccesPatientListe.push(msg.sender);\r\n        patientInfo[msg.sender].AccesMedecinListe.push(addr);\r\n    }\r\n\r\n    //Appeler par le medecin\r\n    function insurance_claim(address paddr, uint _diagnostic, string memory  _hash,string memory _hashRapport) payable public {\r\n    \r\n        bool patienttrouve = false;\r\n        for(uint i = 0;i<medecinInfo[msg.sender].AccesPatientListe.length;i++){\r\n            if(medecinInfo[msg.sender].AccesPatientListe[i]==paddr){\r\n                //a voir\r\n                payable(msg.sender).transfer(2 ether);\r\n                ensembleCredit -= 2;\r\n                patienttrouve = true;\r\n                \r\n            }\r\n            \r\n        }\r\n        if(patienttrouve==true){\r\n            set_hash(paddr, _hash,_hashRapport);\r\n            delete_patient(paddr, msg.sender);\r\n        \r\n        }else {\r\n            revert();\r\n        }\r\n\r\n        bool DiagnosticFound = false;\r\n        for(uint j = 0; j < patientInfo[paddr].diagnostic.length;j++){\r\n            if(patientInfo[paddr].diagnostic[j] == _diagnostic)\r\n            DiagnosticFound = true;\r\n        }\r\n    }\r\n\r\n\r\n    function delete_element_array(address[] storage Array, address addr) internal returns(uint)\r\n    {\r\n        bool check = false;\r\n        uint del_index = 0;\r\n        for(uint i = 0; i<Array.length; i++){\r\n            if(Array[i] == addr){\r\n                check = true;\r\n                del_index = i;\r\n            }\r\n        }\r\n        if(!check) revert();\r\n        else{\r\n            if(Array.length == 1){\r\n                delete Array[del_index];\r\n            }\r\n            else {\r\n                Array[del_index] = Array[Array.length - 1];\r\n                delete Array[Array.length - 1];\r\n\r\n            }\r\n            //a voir\r\n            Array.pop();\r\n        }\r\n    }\r\n\r\n    function delete_patient(address paddr, address maddr) public {\r\n        delete_element_array(medecinInfo[maddr].AccesPatientListe, paddr);\r\n        delete_element_array(patientInfo[paddr].AccesMedecinListe, maddr);\r\n    }\r\n\r\n    function get_AccesMedecinListe(address addr) public view returns (address[] memory )\r\n    { \r\n        address[] storage medecinaddr = patientInfo[addr].AccesMedecinListe;\r\n        return medecinaddr;\r\n    }\r\n\r\n    function get_AccesPatientListe(address addr) public view returns (address[] memory )\r\n    {\r\n        return medecinInfo[addr].AccesPatientListe;\r\n    }\r\n\r\n    //appeler par Patient\r\n    function retirer_Acces(address maddr) public payable{\r\n        delete_patient(msg.sender,maddr);\r\n        payable(msg.sender).transfer(2 ether);\r\n        ensembleCredit -= 2;\r\n    }\r\n\r\n   \r\n\r\n    function get_hash(address paddr) public view returns(string memory ){\r\n        return patientInfo[paddr].dossier;\r\n    }\r\n\r\n    function get_Rapporthash(address paddr) public view returns(string[] memory ){\r\n        return patientInfo[paddr].rapport;\r\n    }\r\n\r\n    function set_hash(address paddr, string memory _hash,string memory _hashRapport) internal {\r\n        patientInfo[paddr].dossier = _hash;\r\n        patientInfo[paddr].rapport.push(_hashRapport);\r\n    }\r\n\r\n\r\n    \r\n}",
  "sourcePath": "C:\\Users\\ELLOUMI Marwen\\Downloads\\Medical-RecordsFinal\\Medical-Records\\contracts\\MedicalContract.sol",
  "compiler": {
    "name": "solc",
    "version": "0.8.13+commit.abaa5c0e.Emscripten.clang"
  },
  "schemaVersion": "3.4.6",
  "updatedAt": "2022-05-25T16:11:10.478Z",
  "networkType": "ethereum",
  "devdoc": {
    "kind": "dev",
    "methods": {},
    "version": 1
  },
  "userdoc": {
    "kind": "user",
    "methods": {},
    "version": 1
  }
}